:100000000C9446000C9446010C9471010C9463000E
:100010000C9463000C9413020C9463000C94ED0197
:100020000C9463000C9463000C9463000C949C018A
:100030000C9463000C9463000C9463000C946300B4
:100040000C9463000C9463000C9463000C946300A4
:100050000C9463007B038C039D03AE03BF03D003AA
:10006000E103F203030414043C044D045E046F0432
:1000700080049104A204B304C404D50441054705D7
:100080004D05530559055F0565056B0511241FBE18
:10009000CFE5D8E0DEBFCDBF10E0A0E6B0E0E2EBF8
:1000A000F4E102C005900D92A236B107D9F720E025
:1000B000A2E6B0E001C01D92A637B207E1F70E94A8
:1000C00065000C94570A0C9400000E942F0380E0F6
:1000D0000E94060382E00E94060381E00E9406035C
:1000E00080E00E94B5020E9497020E94A6020E9430
:1000F000FD040E9464080E94C7080E9400090E9433
:1001000063020E943A080E94470868E873E180E0B1
:1001100090E00E94710864E670E080E090E00E9448
:10012000DA0868EE73E080E090E00E940D0980E05C
:100130000E9480028093600000E011E080E00E9455
:100140001B038130A1F42FE78FEA92E02150804019
:100150009040E1F700C0000080E00E941B03813066
:1001600031F480E00E941B038130D9F30127013074
:1001700009F080C082E00E941B03813029F0812FAA
:100180000E941B03813009F52FEF80E792E0215098
:1001900080409040E1F700C0000082E00E941B0315
:1001A000813029F0812F0E941B03813071F482E09D
:1001B0000E941B038130D9F3812F0E941B038130E1
:1001C000B1F3109366000E94B308809166008130FD
:1001D000B9F40E9454080E9458088091660081304A
:1001E00009F0ACCF6091600080E00E9466028091CF
:1001F00060000E944C0380916600813099F39ECF8D
:100200000E94F6080E945C080E9460088AE00E9432
:100210001005EC01F82E80916B000E944C03DD2745
:100220008091600090E08C1B9D0B059734F00E943C
:100230009C020E94B0020E944F0980916000C81B7E
:10024000D10925974CF00E9459090E94AB020E94E7
:10025000A10280E00E94CA0280916000F8126ECF75
:100260000E9459090E94B0020E94A10280E00E94EF
:10027000DF0264CF0E94A1020E94B00280E00E94CF
:10028000DF020E945C080E94600858CF1F920F9204
:100290000FB60F9211242F938F939F932FEF81EE20
:1002A00094E0215080409040E1F700C00000809130
:1002B00060008B5F8093600010926700109268006E
:1002C0001092690010926A008C3418F08BE48093CD
:1002D00060009F918F912F910F900FBE0F901F90F4
:1002E00018951F920F920FB60F9211242F938F9390
:1002F0009F932FEF81EE94E0215080409040E1F7F2
:1003000000C00000809160008550809360001092D2
:100310006700109268001092690010926A008332A0
:1003200018F483E2809360009F918F912F910F903A
:100330000FBE0F901F9018951F920F920FB60F923D
:1003400011242F933F934F935F936F937F938F93DA
:100350009F93AF93BF93EF93FF938091670090912A
:100360006800A0916900B0916A000196A11DB11DBD
:100370008093670090936800A0936900B0936A002F
:100380004091700050917100609172007091730003
:1003900084179507A607B70779F4109266000E94A4
:1003A000BD081092670010926800109269001092C8
:1003B0006A008091740082BFFF91EF91BF91AF916D
:1003C0009F918F917F916F915F914F913F912F916D
:1003D0000F900FBE0F901F9018951F920F920FB69F
:1003E0000F9211242F933F934F935F936F937F93BB
:1003F0008F939F93AF93BF93EF93FF930E9400055A
:1004000080936B00FF91EF91BF91AF919F918F917E
:100410007F916F915F914F913F912F910F900FBE00
:100420000F901F9018951F920F920FB60F921124E4
:100430002F933F934F935F936F937F938F939F93EC
:10044000AF93BF93EF93FF9380916200909163000D
:10045000A0916400B09165000196A11DB11D80932B
:10046000620090936300A0936400B0936500409194
:100470006C0050916D0060916E0070916F00841758
:100480009507A607B70771F480E00E94F402109266
:1004900062001092630010926400109265008091D7
:1004A000750084BDFF91EF91BF91AF919F918F91A6
:1004B0007F916F915F914F913F912F910F900FBE60
:1004C0000F901F9018950E9463090895CF93DF93B2
:1004D000D82FC62F0E94720980E50E94A0098D2F97
:1004E0000E94C4098C2F0E94C4090E94FA098FE35C
:1004F0009CE90197F1F700C00000DF91CF910895CA
:10050000CF93C82F0E94720980E50E94A0098C2F0A
:100510000E94C4090E94890980E50E94AD090E94D9
:10052000DC09C82F0E94FA098C2FCF91089561E051
:100530008AE20E947605089561E08AE20E946506DB
:10054000089560E08AE20E946506089561E08BE20A
:100550000E947605089561E08BE20E946506089589
:1005600060E08BE20E9465060895813049F018F042
:10057000823059F0089561E080E20E947605089586
:1005800061E085E20E947605089561E087E10E94BE
:1005900076050895813049F018F0823059F00895B9
:1005A00061E080E20E946506089561E085E20E94B4
:1005B0006506089561E087E10E946506089581302F
:1005C00049F018F0823059F0089560E080E20E940E
:1005D0006506089560E085E20E946506089560E082
:1005E00087E10E9465060895813041F018F082305D
:1005F00049F0089580E20E945407089585E20E9420
:100600005407089587E10E9454070895813049F006
:1006100018F0823059F0089560E08AE00E94760573
:10062000089560E08AE10E947605089560E086E121
:100630000E9476050895813041F018F0823049F02B
:100640000CC08AE00E94CA0708958AE10E94CA0786
:10065000089586E10E94CA07089580E0089561E048
:100660008BE00E94760561E08CE00E94760561E0F7
:100670008DE00E94760561E08CE20E94760561E0E3
:100680008DE20E94760561E08EE20E94760561E0CF
:100690008FE20E94760508958F929F92AF92BF924B
:1006A000CF92DF92EF92FF92CF93DF939DEC899FE1
:1006B000C12C1124C694C694C6942C2D220F922FBF
:1006C000990F990F920F882E891AC4E1D0E0D12C8E
:1006D000912C61E08CE00E94650660E08BE00E9456
:1006E00065068AE0C816D10408F0AEC0F601E65DE2
:1006F000FF4F0C94370A60E08CE20E94650660E0D0
:100700008DE20E94650660E08EE20E94650660E070
:100710008FE20E94650698C061E08CE20E94650647
:1007200060E08DE20E94650660E08EE20E94650650
:1007300060E08FE20E94650687C060E08CE20E9464
:10074000650661E08DE20E94650660E08EE20E942F
:10075000650660E08FE20E94650676C061E08CE28B
:100760000E94650661E08DE20E94650660E08EE20F
:100770000E94650660E08FE20E94650665C060E049
:100780008CE20E94650660E08DE20E94650661E0F1
:100790008EE20E94650660E08FE20E94650654C00A
:1007A00061E08CE20E94650660E08DE20E946506D1
:1007B00061E08EE20E94650660E08FE20E946506BD
:1007C00043C060E08CE20E94650661E08DE20E9419
:1007D000650661E08EE20E94650660E08FE20E949D
:1007E000650632C061E08CE20E94650661E08DE240
:1007F0000E94650661E08EE20E94650660E08FE27D
:100800000E94650621C060E08CE20E94650660E0FF
:100810008DE20E94650660E08EE20E94650661E05E
:100820008FE20E94650610C061E08CE20E946506BE
:1008300060E08DE20E94650660E08EE20E9465063F
:1008400061E08FE20E9465068FE39CE90197F1F772
:1008500000C0000060E08CE00E94650661E08BE073
:100860000E9465069AE08916910408F0AEC0F40172
:10087000EC5CFF4F0C94370A60E08CE20E94650646
:1008800060E08DE20E94650660E08EE20E946506EF
:1008900060E08FE20E94650698C061E08CE20E94F1
:1008A000650660E08DE20E94650660E08EE20E94CF
:1008B000650660E08FE20E94650687C060E08CE21A
:1008C0000E94650661E08DE20E94650660E08EE2AE
:1008D0000E94650660E08FE20E94650676C061E0D6
:1008E0008CE20E94650661E08DE20E94650660E090
:1008F0008EE20E94650660E08FE20E94650665C098
:1009000060E08CE20E94650660E08DE20E94650670
:1009100061E08EE20E94650660E08FE20E9465065B
:1009200054C061E08CE20E94650660E08DE20E94A6
:10093000650661E08EE20E94650660E08FE20E943B
:10094000650643C060E08CE20E94650661E08DE2CE
:100950000E94650661E08EE20E94650660E08FE21B
:100960000E94650632C061E08CE20E94650661E08B
:100970008DE20E94650661E08EE20E94650660E0FD
:100980008FE20E94650621C060E08CE20E9465064D
:1009900060E08DE20E94650660E08EE20E946506DE
:1009A00061E08FE20E94650610C061E08CE20E9467
:1009B000650660E08DE20E94650660E08EE20E94BE
:1009C000650661E08FE20E9465068FE39CE901976E
:1009D000F1F700C0000060E08BE00E9465062197FF
:1009E00009F077CEDF91CF91FF90EF90DF90CF901D
:1009F000BF90AF909F908F9008950E942F0508950B
:100A000080E00E9438059C01A4EFB1E00E943D0AFD
:100A10002FEF33E040E050E00E94150AC90108952D
:100A20000F931F93CF93DF93D82F882359F0C0E003
:100A300000E010E00E940005080F191FCF5FDC13D3
:100A4000F9CF02C000E010E06D2F70E0C8010E94F5
:100A5000010ACB01DF91CF911F910F9108953E9A2A
:100A60003F983D98359A309A319A329A379A08953C
:100A700090E088309105A0F5FC01E25CFF4F0C94FA
:100A8000370A389839983A983B983C9829C0389A50
:100A900039983A983B983C9823C03898399A3A98B4
:100AA0003B983C981DC0389A399A3A983B983C98A4
:100AB00017C0389839983A9A3B983C9811C0389AA0
:100AC00039983A9A3B983C980BC03898399A3A9A98
:100AD0003B983C9805C0389A399A3A9A3B983C988A
:100AE000369A349BFECF84B195B108959DEC899FD1
:100AF000912D1124969596959695662309F472C0CA
:100B0000613009F0E1C0923021F118F4913039F0F0
:100B100008959330C1F1943009F44CC0089547B35F
:100B20009DEC899F912D1124969596959695990FF8
:100B3000292F220F220F920F891B21E030E0B901EB
:100B400002C0660F771F8A95E2F7CB01842B87BB23
:100B5000089541B39DEC899F912D112492959F702A
:100B6000990F990F292F220F220F920F891B21E035
:100B700030E0B90102C0660F771F8A95E2F7CB011A
:100B8000842B81BB089544B399E8899F912D11244A
:100B900092959F707EE1979F8019112421E030E0AB
:100BA000B90102C0660F771F8A95E2F7CB01842B4B
:100BB00084BB08954AB39DEC899F912D1124929591
:100BC0009695977078E2979F8019112421E030E084
:100BD000B90102C0660F771F8A95E2F7CB01842B1B
:100BE0008ABB0895923029F118F4913039F00895B4
:100BF0009330D1F1943009F44FC0089547B39DEC80
:100C0000899F912D1124969596959695990F292F48
:100C1000220F220F920F891B21E030E0B90102C0A0
:100C2000660F771F8A95E2F7CB018095842387BBF7
:100C3000089541B39DEC899F912D112492959F7049
:100C4000990F990F292F220F220F920F891B21E054
:100C500030E0B90102C0660F771F8A95E2F7CB0139
:100C60008095842381BB089544B399E8899F912D91
:100C7000112492959F707EE1979F8019112421E0A5
:100C800030E0B90102C0660F771F8A95E2F7CB0109
:100C90008095842384BB08954AB39DEC899F912D50
:100CA000112492959695977078E2979F8019112458
:100CB00021E030E0B90102C0660F771F8A95E2F7A4
:100CC000CB01809584238ABB08959DEC899F912D4B
:100CD0001124969596959695662309F472C0613015
:100CE00009F0E1C0923021F118F4913039F0089503
:100CF0009330C1F1943009F44CC0089548B39DEC91
:100D0000899F912D1124969596959695990F292F47
:100D1000220F220F920F891B21E030E0B90102C09F
:100D2000660F771F8A95E2F7CB01842B88BB089565
:100D300042B39DEC899F912D112492959F70990F3C
:100D4000990F292F220F220F920F891B21E030E0EB
:100D5000B90102C0660F771F8A95E2F7CB01842B99
:100D600082BB089545B399E8899F912D11249295EE
:100D70009F707EE1979F8019112421E030E0B90136
:100D800002C0660F771F8A95E2F7CB01842B85BBE3
:100D900008954BB39DEC899F912D112492959695C2
:100DA000977078E2979F8019112421E030E0B90113
:100DB00002C0660F771F8A95E2F7CB01842B8BBBAD
:100DC0000895923029F118F4913039F00895933054
:100DD000D1F1943009F44FC0089548B39DEC899F38
:100DE000912D1124969596959695990F292F220F5E
:100DF000220F920F891B21E030E0B90102C0660F7B
:100E0000771F8A95E2F7CB018095842388BB0895EC
:100E100042B39DEC899F912D112492959F70990F5B
:100E2000990F292F220F220F920F891B21E030E00A
:100E3000B90102C0660F771F8A95E2F7CB01809552
:100E4000842382BB089545B399E8899F912D11248D
:100E500092959F707EE1979F8019112421E030E0E8
:100E6000B90102C0660F771F8A95E2F7CB01809522
:100E7000842385BB08954BB39DEC899F912D11244C
:100E800092959695977078E2979F8019112421E0AA
:100E900030E0B90102C0660F771F8A95E2F7CB01F7
:100EA000809584238BBB08959DEC899F912D1124FF
:100EB000969596959695923021F118F4913039F0E7
:100EC00008959330C1F1943009F44CC0089548B3AB
:100ED0009DEC899F912D1124969596959695990F45
:100EE000292F220F220F920F891B21E030E0B90138
:100EF00002C0660F771F8A95E2F7CB01842788BB73
:100F0000089542B39DEC899F912D112492959F7075
:100F1000990F990F292F220F220F920F891B21E081
:100F200030E0B90102C0660F771F8A95E2F7CB0166
:100F3000842782BB089545B399E8899F912D112498
:100F400092959F707EE1979F8019112421E030E0F7
:100F5000B90102C0660F771F8A95E2F7CB0184279B
:100F600085BB08954BB39DEC899F912D11249295DB
:100F70009695977078E2979F8019112421E030E0D0
:100F8000B90102C0660F771F8A95E2F7CB0184276B
:100F90008BBB08959DEC899F912D11249695969574
:100FA0009695923011F118F4913039F061C0933078
:100FB000A1F1943009F446C05BC026B330E09DEC4B
:100FC000899F912D1124969596959695990F492F65
:100FD000440F440F940F891BA90102C055954795F2
:100FE0008A95E2F7CA018170089520B330E09DEC44
:100FF000899F912D112492959F70990F990F492FD8
:10100000440F440F940F891BA90102C055954795C1
:101010008A95E2F7CA018170089523B330E099E818
:10102000899F912D112492959F705EE1959F801963
:101030001124A90102C0559547958A95E2F7CA0186
:101040008170089529B330E09DEC899F912D112482
:1010500092959695977058E2959F80191124A90151
:1010600002C0559547958A95E2F7CA0181700895A7
:1010700080E008958FB780688FBF8BB780648BBF87
:1010800085B7816085BF85B7826085BF08958FB7BA
:1010900080688FBF8BB780688BBF85B7846085BF42
:1010A00085B7886085BF08958BB780648BBF08952E
:1010B0008BB780688BBF08958BB78F7B8BBF0895EC
:1010C0008BB78F778BBF089583B7877F83BF83B735
:1010D0008F7B83BF8FB780688FBF89B7816089BFDF
:1010E00008950F931F939B01AC01A8EEB3E00E94FB
:1010F0004C0A8B019C01689415F836952795179535
:1011000007951694D1F7DC01CB01072E7EE0B6954A
:10111000A795979587957A95D1F7702D8093700054
:1011200090937100A0937200B0937300802F80950C
:10113000809374000023A1F082BF80917000909191
:101140007100A0917200B09173000196A11DB11DB4
:101150008093700090937100A0937200B09373001D
:101160001F910F91089583B7816083BF83B78D7FEF
:1011700083BF83B7846083BF089583B78E7F83BFA7
:1011800083B78D7F83BF83B78B7F83BF08958FB570
:101190008E7F8FBD8FB58D7F8FBD8EB588608EBDE4
:1011A0008EB58F7E8EBD8FB780688FBF89B7806107
:1011B00089BF089561342FE1720781059105A8F474
:1011C000A8EEB3E09B01AC010E944C0ADC01CB010C
:1011D000689415F8B695A795979587951694D1F7C5
:1011E000BC01615071097BBD6ABD08958EB58160F7
:1011F0008EBD8EB58D7F8EBD8EB584608EBD0895FB
:1012000085B5877F85BD85B58F7B85BD8FB78068A8
:101210008FBF89B7806489BF08950F931F939B0187
:10122000AC01A8EEB3E00E944C0A8B019C016894CB
:1012300015F836952795179507951694D1F7DC0183
:10124000CB01072E7EE0B695A795979587957A9561
:10125000D1F7702D80936C0090936D00A0936E0079
:10126000B0936F00802F8095809375000023A1F0CC
:1012700084BD80916C0090916D00A0916E00B09142
:101280006F000196A11DB11D80936C0090936D00BD
:10129000A0936E00B0936F001F910F91089585B5D4
:1012A000816085BD85B5826085BD85B5846085BD5D
:1012B000089585B58E7F85BD85B58D7F85BD85B546
:1012C0008B7F85BD089588E480B986B7846086BF2A
:1012D0002FEF81EE94E0215080409040E1F700C074
:1012E0000000089586B7806286BF86B7806886BF93
:1012F00006B607FEFDCF81B1887F8830E1F72FEF7A
:1013000081EE94E0215080409040E1F700C0000061
:10131000089586B7806286BF86B7806886BF06B6A6
:1013200007FEFDCF81B1887F8031E1F72FEF81EE9D
:1013300094E0215080409040E1F700C00000089503
:10134000880F83B986B7806886BF06B607FEFDCFD3
:1013500081B1887F8831E1F70895880F816083B972
:1013600086B7806886BF06B607FEFDCF81B1887F4D
:101370008034E1F72FEF81EE94E0215080409040DF
:10138000E1F700C00000089583B986B78F7D86BF5E
:1013900086B7806886BF06B607FEFDCF81B1887F1D
:1013A0008832E1F72FEF81EE94E0215080409040A9
:1013B000E1F700C00000089586B78F7D86BF86B72D
:1013C0008F7E86BF86B7806486BF86B7806886BFFB
:1013D00006B607FEFDCF81B1887F8035E1F72FEF9C
:1013E00081EE94E0215080409040E1F700C0000081
:1013F00083B1089586B7806186BF86B7806886BF4F
:101400000895AA1BBB1B51E107C0AA1FBB1FA6174B
:10141000B70710F0A61BB70B881F991F5A95A9F79D
:1014200080959095BC01CD010895A1E21A2EAA1BCA
:10143000BB1BFD010DC0AA1FBB1FEE1FFF1FA21784
:10144000B307E407F50720F0A21BB30BE40BF50B81
:10145000661F771F881F991F1A9469F7609570950A
:10146000809590959B01AC01BD01CF010895EE0FD1
:10147000FF1F0590F491E02D0994A29FB001B39F46
:10148000C001A39F700D811D1124911DB29F700D8D
:10149000811D1124911D08950E943D0AA59F900D64
:1014A000B49F900DA49F800D911D11240895F89470
:0214B000FFCF6C
:0214B2003C00FC
:00000001FF
